:100000000C945D000C9485000C9485000C94850084
:100010000C9485000C9485000C9485000C9485004C
:100020000C9485000C9485000C9485000C9485003C
:100030000C9485000C9485000C9485000C9485002C
:100040000C9443020C9485000C94B3020C948D0222
:100050000C9485000C9485000C9485000C9485000C
:100060000C9485000C94850000000008000201003B
:100070000003040700000000000000000000000072
:10008000250028002B0000000000240027002A0083
:10009000040404040404040402020202020203032E
:1000A0000303030301020408102040800102040836
:1000B0001020010204081020A20411241FBECFEF5B
:1000C000D8E0DEBFCDBF11E0A0E0B1E0E2E4FAE0AD
:1000D00002C005900D92A633B107D9F722E0A6E33E
:1000E000B1E001C01D92AC31B207E1F710E0CDE5FF
:1000F000D0E004C02197FE010E941905CC35D1073C
:10010000C9F70E94E5020C941F050C94000090E0D2
:10011000FC01EC55FF4F249180579F4FFC018491C7
:10012000882399F090E0880F991FFC01EA57FF4F50
:10013000A591B491FC01E458FF4F859194918FB73C
:10014000F894EC91E22BEC938FBF089590E0FC01C2
:10015000E859FF4F2491FC01EC55FF4F3491FC010D
:10016000E057FF4FE491EE23C9F0222339F023300A
:1001700001F1A8F4213019F1223029F1F0E0EE0F5D
:10018000FF1FE458FF4FA591B4918FB7F894EC91FD
:10019000611126C030953E233C938FBF08952730D0
:1001A000A9F02830C9F0243049F7809180008F7D74
:1001B00003C0809180008F7780938000DFCF84B56B
:1001C0008F7784BDDBCF84B58F7DFBCF8091B0006E
:1001D0008F778093B000D2CF8091B0008F7DF9CF20
:1001E0003E2BDACF8E50806480937C0080917A0021
:1001F000806480937A0080917A0086FDFCCF8091A4
:1002000078009091790008953FB7F89480917B0130
:1002100090917C01A0917D01B0917E0126B5A89BB3
:1002200005C02F3F19F00196A11DB11D3FBFBA2F88
:10023000A92F982F8827BC01CD01620F711D811D48
:10024000911D42E0660F771F881F991F4A95D1F7CD
:100250000895AF92BF92CF92DF92EF92FF920F93E9
:100260001F93CF93DF936C017B018B01040F151F4C
:10027000EB015E01AE18BF08C017D10759F06991B4
:10028000D601ED91FC910190F081E02DC601099518
:10029000892B79F7C501DF91CF911F910F91FF90C5
:1002A000EF90DF90CF90BF90AF900895FC01538DF9
:1002B000448D252F30E0842F90E0821B930B541740
:1002C00010F0CF96089501970895FC01918D828DCD
:1002D000981761F0A28DAE0FBF2FB11D5D968C9166
:1002E000928D9F5F9F73928F90E008958FEF9FEFA5
:1002F0000895FC01918D828D981731F0828DE80F61
:10030000F11D858D90E008958FEF9FEF0895FC011A
:10031000918D228D892F90E0805C9F4F821B9109E7
:100320008F73992708958FE791E00E94870121E05C
:10033000892B09F420E0822F089580E090E0892B3A
:1003400029F00E94930181110C9400000895FC0192
:10035000A48DA80FB92FB11DA35ABF4F2C91848D26
:1003600090E001968F739927848FA689B7892C9383
:10037000A089B1898C91837080648C93938D848DD6
:10038000981306C00288F389E02D80818F7D8083D9
:100390000895EF92FF920F931F93CF93DF93EC0199
:1003A00081E0888F9B8D8C8D98131AC0E889F9891C
:1003B000808185FF15C09FB7F894EE89FF8960831F
:1003C000E889F98980818370806480839FBF81E0A0
:1003D00090E0DF91CF911F910F91FF90EF900895E2
:1003E000F62E0B8D10E00F5F1F4F0F731127E02EBD
:1003F0008C8D8E110CC00FB607FCFACFE889F989F5
:10040000808185FFF5CFCE010E94A701F1CFEB8D52
:10041000EC0FFD2FF11DE35AFF4FF0829FB7F894C8
:100420000B8FEA89FB8980818062CFCFCF93DF93E6
:10043000EC01888D8823B9F0AA89BB89E889F989FC
:100440008C9185FD03C0808186FD0DC00FB607FC31
:10045000F7CF8C9185FFF2CF808185FFEDCFCE0164
:100460000E94A701E9CFDF91CF910895FC0101908F
:100470000020E9F73197AF01481B590BBC018FE70A
:1004800091E00C9429011F920F920FB60F92112444
:100490002F933F938F939F93AF93BF938091770157
:1004A00090917801A0917901B0917A013091760113
:1004B00023E0230F2D3758F50196A11DB11D209380
:1004C00076018093770190937801A0937901B0939E
:1004D0007A0180917B0190917C01A0917D01B09186
:1004E0007E010196A11DB11D80937B0190937C013B
:1004F000A0937D01B0937E01BF91AF919F918F91A9
:100500003F912F910F900FBE0F901F90189526E8E6
:10051000230F0296A11DB11DD2CF1F920F920FB6CD
:100520000F9211242F933F934F935F936F937F9379
:100530008F939F93AF93BF93EF93FF938FE791E0D8
:100540000E94A701FF91EF91BF91AF919F918F9171
:100550007F916F915F914F913F912F910F900FBEBF
:100560000F901F9018951F920F920FB60F921124A3
:100570002F938F939F93EF93FF93E0918F01F091CF
:1005800090018081E0919501F091960182FD1BC060
:100590009081809198018F5F8F73209199018217CC
:1005A00041F0E0919801F0E0E158FE4F958F809383
:1005B0009801FF91EF919F918F912F910F900FBE16
:1005C0000F901F9018958081F4CFCF93DF93CDB714
:1005D000DEB7A1970FB6F894DEBF0FBECDBF7894FB
:1005E00084B5826084BD84B5816084BD85B5826038
:1005F00085BD85B5816085BD80916E0081608093E9
:100600006E00109281008091810082608093810051
:100610008091810081608093810080918000816061
:10062000809380008091B10084608093B1008091BC
:10063000B00081608093B00080917A0084608093E4
:100640007A0080917A00826080937A0080917A00AB
:10065000816080937A0080917A00806880937A002C
:100660001092C10082E00E94870083E00E94870010
:1006700084E00E94870060E082E00E94A60060E0C3
:1006800083E00E94A60060E084E00E94A600E09162
:100690008F01F091900182E08083E0918B01F091D5
:1006A0008C011082E0918D01F0918E018FEC80839E
:1006B00010929701E0919301F091940186E080837C
:1006C000E0919101F0919201808180618083E091BD
:1006D0009101F0919201808188608083E091910185
:1006E000F0919201808180688083E0919101F09186
:1006F000920180818F7D808382E191E00E943602A9
:1007000080E391E00E943602EBE82E2E33243394EE
:10071000FAE08F2E912CA12CB12C76E3472E71E0BC
:10072000572E320110E000E0602F617082E00E94DD
:10073000A600B80175956795617083E00E94A600D8
:10074000B801759567957595679584E00E94A60038
:1007500083E290E00197F1F765E0C62ED12CF12CF1
:10076000E12C8EE00E94F200E80EF91EC101019713
:10077000F1F721E0C21AD108A1F7C70165E070E0E6
:100780000E94CF04F3017183608335E0C32ED12C26
:10079000F12CE12C8FE00E94F200E80EF91EC1015D
:1007A0000197F1F7F1E0CF1AD108A1F7C70165E091
:1007B00070E00E94CF04F3017383628325E0C22EB0
:1007C000D12CF12CE12C80E10E94F200E80EF91E00
:1007D000C1010197F1F7F1E0CF1AD108A1F7C701E4
:1007E00065E070E00E94CF04F3017583648395E0B7
:1007F000C92ED12CF12CE12C81E10E94F200E80EEF
:10080000F91EC1010197F1F7F1E0CF1AD108A1F764
:10081000C70165E070E00E94CF04F301778366832F
:100820000F5F1F4FF8E06F0E711C0830110509F0C3
:100830007BCF10E000E0F201C190D1902F010D2C90
:10084000000CEE08FF08F7FE67C06DE28FE791E04D
:100850000E94C90122273327A9012C193D094E09FD
:100860005F0919A2CE0181967C01CA01B901A501D7
:1008700094010E94E304605DF70162937F012115FA
:1008800031054105510589F7E114F10419F0C7015B
:100890000E9436020F31110521F083E391E00E949E
:1008A00036020F5F1F4F0032110529F680E391E0F9
:1008B0000E9436020E9404016B017C018CE2482EEA
:1008C00055245394612C712C0E9404016C197D09EC
:1008D0008E099F09683E734081059105A8F3F1E0F8
:1008E0004F1A51086108710828EEC20E23E0D21E8B
:1008F000E11CF11C411451046104710429F780E0EA
:1009000090E0892B09F409CF0E949301882309F410
:1009100004CF0E94000001CFA701960119A2CE01C9
:1009200081967C01CA01B901A50194010E94E304EA
:10093000605DF70162937F01211531054105510585
:1009400089F7A2CFEFE7F1E01382128288EE93E0FD
:10095000A0E0B0E084839583A683B78384E091E030
:100960009183808385EC90E09587848784EC90E088
:100970009787868780EC90E0918B808B81EC90E06C
:10098000938B828B82EC90E0958B848B86EC90E04D
:10099000978B868B118E128E138E148E089597FB73
:1009A000072E16F4009407D077FD09D00E940505A4
:1009B00007FC05D03EF4909581959F4F0895709562
:1009C00061957F4F0895A1E21A2EAA1BBB1BFD0162
:1009D0000DC0AA1FBB1FEE1FFF1FA217B307E4071E
:1009E000F50720F0A21BB30BE40BF50B661F771F76
:1009F000881F991F1A9469F7609570958095909556
:100A00009B01AC01BD01CF010895AA1BBB1B51E1A5
:100A100007C0AA1FBB1FA617B70710F0A61BB70B6E
:100A2000881F991F5A95A9F780959095BC01CD0113
:100A30000895EE0FFF1F0590F491E02D0994F894AE
:020A4000FFCFE6
:100A420000000000C9012901560116028701650153
:100A52007901347820434434303531202D2033322B
:100A62002053656E736F722052656164696E670010
:060A72000D0A002C00003B
:00000001FF
