:100000000C945D000C9485000C9485000C94850084
:100010000C9485000C9485000C9485000C9485004C
:100020000C9485000C9485000C9485000C9485003C
:100030000C9485000C9485000C9485000C9485002C
:100040000C9431020C9485000C94A1020C947B0258
:100050000C9485000C9485000C9485000C9485000C
:100060000C9485000C94850000000008000201003B
:100070000003040700000000000000000000000072
:10008000250028002B0000000000240027002A0083
:10009000040404040404040402020202020203032E
:1000A0000303030301020408102040800102040836
:1000B0001020010204081020440411241FBECFEFB9
:1000C000D8E0DEBFCDBF11E0A0E0B1E0E6E3F9E0AB
:1000D00002C005900D92AC33B107D9F721E0ACE333
:1000E000B1E001C01D92AA3FB207E1F710E0CDE5F3
:1000F000D0E004C02197FE010E949304CC35D107C3
:10010000C9F70E94D3020C9499040C94000090E06B
:10011000FC01EC55FF4F249180579F4FFC018491C7
:10012000882399F090E0880F991FFC01EA57FF4F50
:10013000A591B491FC01E458FF4F859194918FB73C
:10014000F894EC91E22BEC938FBF089590E0FC01C2
:10015000E859FF4F2491FC01EC55FF4F3491FC010D
:10016000E057FF4FE491EE23C9F0222339F023300A
:1001700001F1A8F4213019F1223029F1F0E0EE0F5D
:10018000FF1FE458FF4FA591B4918FB7F894EC91FD
:10019000611126C030953E233C938FBF08952730D0
:1001A000A9F02830C9F0243049F7809180008F7D74
:1001B00003C0809180008F7780938000DFCF84B56B
:1001C0008F7784BDDBCF84B58F7DFBCF8091B0006E
:1001D0008F778093B000D2CF8091B0008F7DF9CF20
:1001E0003E2BDACF3FB7F8948091590190915A0194
:1001F000A0915B01B0915C0126B5A89B05C02F3F83
:1002000019F00196A11DB11D3FBFBA2FA92F982F3C
:100210008827BC01CD01620F711D811D911D42E037
:10022000660F771F881F991F4A95D1F70895AF92DF
:10023000BF92CF92DF92EF92FF920F931F93CF93D3
:10024000DF936C017B018B01040F151FEB015E0135
:10025000AE18BF08C017D10759F06991D601ED91CA
:10026000FC910190F081E02DC6010995892B79F769
:10027000C501DF91CF911F910F91FF90EF90DF901B
:10028000CF90BF90AF900895FC01538D448D252FE2
:1002900030E0842F90E0821B930B541710F0CF9620
:1002A000089501970895FC01918D828D981761F052
:1002B000A28DAE0FBF2FB11D5D968C91928D9F5F69
:1002C0009F73928F90E008958FEF9FEF0895FC0148
:1002D000918D828D981731F0828DE80FF11D858DFB
:1002E00090E008958FEF9FEF0895FC01918D228D8E
:1002F000892F90E0805C9F4F821B91098F73992713
:1003000008958DE591E00E94750121E0892B09F4A3
:1003100020E0822F089580E090E0892B29F00E9450
:10032000810181110C9400000895FC01A48DA80F97
:10033000B92FB11DA35ABF4F2C91848D90E0019627
:100340008F739927848FA689B7892C93A089B18947
:100350008C91837080648C93938D848D981306C0E8
:100360000288F389E02D80818F7D80830895EF924C
:10037000FF920F931F93CF93DF93EC0181E0888F5F
:100380009B8D8C8D98131AC0E889F989808185FF2F
:1003900015C09FB7F894EE89FF896083E889F989D1
:1003A00080818370806480839FBF81E090E0DF91D3
:1003B000CF911F910F91FF90EF900895F62E0B8D26
:1003C00010E00F5F1F4F0F731127E02E8C8D8E11E1
:1003D0000CC00FB607FCFACFE889F989808185FF48
:1003E000F5CFCE010E949501F1CFEB8DEC0FFD2FE3
:1003F000F11DE35AFF4FF0829FB7F8940B8FEA8903
:10040000FB8980818062CFCFCF93DF93EC01888D11
:100410008823B9F0AA89BB89E889F9898C9185FD7F
:1004200003C0808186FD0DC00FB607FCF7CF8C910D
:1004300085FFF2CF808185FFEDCFCE010E9495012F
:10044000E9CFDF91CF910895FC0101900020E9F7F9
:100450003197AF01481B590BBC018DE591E00C941D
:1004600017011F920F920FB60F9211242F933F93F3
:100470008F939F93AF93BF938091550190915601B5
:10048000A0915701B09158013091540123E0230FFE
:100490002D3758F50196A11DB11D2093540180936D
:1004A000550190935601A0935701B0935801809144
:1004B000590190915A01A0915B01B0915C010196A4
:1004C000A11DB11D8093590190935A01A0935B0126
:1004D000B0935C01BF91AF919F918F913F912F910C
:1004E0000F900FBE0F901F90189526E8230F0296CD
:1004F000A11DB11DD2CF1F920F920FB60F921124E2
:100500002F933F934F935F936F937F938F939F931B
:10051000AF93BF93EF93FF938DE591E00E94950118
:10052000FF91EF91BF91AF919F918F917F916F91CB
:100530005F914F913F912F910F900FBE0F901F90A1
:1005400018951F920F920FB60F9211242F938F932D
:100550009F93EF93FF93E0916D01F0916E01808185
:10056000E0917301F091740182FD1BC09081809134
:1005700076018F5F8F7320917701821741F0E091B0
:100580007601F0E0E35AFE4F958F80937601FF915C
:10059000EF919F918F912F910F900FBE0F901F9011
:1005A00018958081F4CFCF93DF93CDB7DEB7A197B5
:1005B0000FB6F894DEBF0FBECDBF789484B58260CD
:1005C00084BD84B5816084BD85B5826085BD85B5F7
:1005D000816085BD80916E00816080936E00109275
:1005E00081008091810082608093810080918100F0
:1005F0008160809381008091800081608093800081
:100600008091B10084608093B1008091B0008160DE
:100610008093B00080917A00846080937A0080910A
:100620007A00826080937A0080917A008160809362
:100630007A0080917A00806880937A001092C100DD
:1006400082E00E94870083E00E94870084E00E948D
:10065000870085E00E948700E0916D01F0916E01B6
:1006600082E08083E0916901F0916A011082E0915B
:100670006B01F0916C018FEC808310927501E09119
:100680007101F091720186E08083E0916F01F09139
:100690007001808180618083E0916F01F091700131
:1006A000808188608083E0916F01F091700180818A
:1006B00080688083E0916F01F091700180818F7D6F
:1006C000808382E191E00E94240287E391E00E940E
:1006D00024024AE0842E912CA12CB12C50E0652EEE
:1006E00050E0752E3CE3C32E31E0D32E760110E0AE
:1006F000612F617082E00E94A600612F627083E02A
:100700000E94A600612F647084E00E94A600612F01
:10071000687085E00E94A6008FE090E00197F1F7F5
:1007200028E030E090E080E040E440937C0040919D
:100730007A00406440937A0040917A0046FDFCCFF5
:100740004091780050917900840F951FEBE1F3E020
:100750003197F1F72150310939F797FD079623E0DA
:10076000959587952A95E1F7F701819391937F01FC
:100770001F5F1C3009F0BCCF10E000E0F6012190B3
:1007800031906F01032C000C4408550857FE66C0D9
:100790006DE28DE591E00E94B70122273327A90180
:1007A000221933094409550919A2CE0181967C0109
:1007B000CA01B901A50194010E947104605DF701AD
:1007C00062937F01211531054105510589F7E11437
:1007D000F10419F0C7010E9424020B30110521F029
:1007E0008AE391E00E9424020F5F1F4F0C30110535
:1007F00029F687E391E00E9424020E94F2006B0137
:100800007C018CE2282E33243394412C512C0E94FD
:10081000F2006C197D098E099F09683E73408105BD
:100820009105A8F3F1E02F1A31084108510828EE8C
:10083000C20E23E0D21EE11CF11C2114310441043C
:10084000510429F76114710409F44CCF0E9481010D
:10085000882309F447CF0E94000044CFA2019101F0
:1008600019A2CE0181967C01CA01B901A5019401AA
:100870000E947104605DF70162937F0121153105CB
:100880004105510589F7A3CFEDE5F1E0138212820E
:1008900088EE93E0A0E0B0E084839583A683B783DD
:1008A00084E091E09183808385EC90E09587848754
:1008B00084EC90E09787868780EC90E0918B808B2A
:1008C00081EC90E0938B828B82EC90E0958B848B13
:1008D00086EC90E0978B868B118E128E138E148E81
:1008E0000895A1E21A2EAA1BBB1BFD010DC0AA1F71
:1008F000BB1FEE1FFF1FA217B307E407F50720F089
:10090000A21BB30BE40BF50B661F771F881F991F03
:100910001A9469F760957095809590959B01AC014C
:10092000BD01CF010895EE0FFF1F0590F491E02D5A
:060930000994F894FFCFCA
:1009360000000000B70117014401040275015301CC
:1009460067015065646F7363616E2056656C6F73E3
:100956007461742053696D756C6174696F6E205390
:0C096600746172746564000D0A002C00BE
:00000001FF
