:100000000C945D000C9485000C9485000C94850084
:100010000C9485000C9485000C9485000C9485004C
:100020000C9485000C9485000C9485000C9485003C
:100030000C9485000C9485000C9485000C9485002C
:100040000C9443020C9485000C94B3020C948D0222
:100050000C9485000C9485000C9485000C9485000C
:100060000C9485000C94850000000008000201003B
:100070000003040700000000000000000000000072
:10008000250028002B0000000000240027002A0083
:10009000040404040404040402020202020203032E
:1000A0000303030301020408102040800102040836
:1000B00010200102040810207D0411241FBECFEF80
:1000C000D8E0DEBFCDBF11E0A0E0B1E0E8EFF9E09D
:1000D00002C005900D92AA34B107D9F722E0AAE434
:1000E000B1E001C01D92A830B207E1F710E0CDE504
:1000F000D0E004C02197FE010E94F404CC35D10762
:10010000C9F70E94E5020C94FA040C94000090E0F8
:10011000FC01EC55FF4F249180579F4FFC018491C7
:10012000882399F090E0880F991FFC01EA57FF4F50
:10013000A591B491FC01E458FF4F859194918FB73C
:10014000F894EC91E22BEC938FBF089590E0FC01C2
:10015000E859FF4F2491FC01EC55FF4F3491FC010D
:10016000E057FF4FE491EE23C9F0222339F023300A
:1001700001F1A8F4213019F1223029F1F0E0EE0F5D
:10018000FF1FE458FF4FA591B4918FB7F894EC91FD
:10019000611126C030953E233C938FBF08952730D0
:1001A000A9F02830C9F0243049F7809180008F7D74
:1001B00003C0809180008F7780938000DFCF84B56B
:1001C0008F7784BDDBCF84B58F7DFBCF8091B0006E
:1001D0008F778093B000D2CF8091B0008F7DF9CF20
:1001E0003E2BDACF8E50806480937C0080917A0021
:1001F000806480937A0080917A0086FDFCCF8091A4
:1002000078009091790008953FB7F8948091670144
:1002100090916801A0916901B0916A0126B5A89BEF
:1002200005C02F3F19F00196A11DB11D3FBFBA2F88
:10023000A92F982F8827BC01CD01620F711D811D48
:10024000911D42E0660F771F881F991F4A95D1F7CD
:100250000895AF92BF92CF92DF92EF92FF920F93E9
:100260001F93CF93DF936C017B018B01040F151F4C
:10027000EB015E01AE18BF08C017D10759F06991B4
:10028000D601ED91FC910190F081E02DC601099518
:10029000892B79F7C501DF91CF911F910F91FF90C5
:1002A000EF90DF90CF90BF90AF900895FC01538DF9
:1002B000448D252F30E0842F90E0821B930B541740
:1002C00010F0CF96089501970895FC01918D828DCD
:1002D000981761F0A28DAE0FBF2FB11D5D968C9166
:1002E000928D9F5F9F73928F90E008958FEF9FEFA5
:1002F0000895FC01918D828D981731F0828DE80F61
:10030000F11D858D90E008958FEF9FEF0895FC011A
:10031000918D228D892F90E0805C9F4F821B9109E7
:100320008F73992708958BE691E00E94870121E061
:10033000892B09F420E0822F089580E090E0892B3A
:1003400029F00E94930181110C9400000895FC0192
:10035000A48DA80FB92FB11DA35ABF4F2C91848D26
:1003600090E001968F739927848FA689B7892C9383
:10037000A089B1898C91837080648C93938D848DD6
:10038000981306C00288F389E02D80818F7D8083D9
:100390000895EF92FF920F931F93CF93DF93EC0199
:1003A00081E0888F9B8D8C8D98131AC0E889F9891C
:1003B000808185FF15C09FB7F894EE89FF8960831F
:1003C000E889F98980818370806480839FBF81E0A0
:1003D00090E0DF91CF911F910F91FF90EF900895E2
:1003E000F62E0B8D10E00F5F1F4F0F731127E02EBD
:1003F0008C8D8E110CC00FB607FCFACFE889F989F5
:10040000808185FFF5CFCE010E94A701F1CFEB8D52
:10041000EC0FFD2FF11DE35AFF4FF0829FB7F894C8
:100420000B8FEA89FB8980818062CFCFCF93DF93E6
:10043000EC01888D8823B9F0AA89BB89E889F989FC
:100440008C9185FD03C0808186FD0DC00FB607FC31
:10045000F7CF8C9185FFF2CF808185FFEDCFCE0164
:100460000E94A701E9CFDF91CF910895FC0101908F
:100470000020E9F73197AF01481B590BBC018BE60F
:1004800091E00C9429011F920F920FB60F92112444
:100490002F933F938F939F93AF93BF93809163016B
:1004A00090916401A0916501B09166013091620163
:1004B00023E0230F2D3758F50196A11DB11D209380
:1004C00062018093630190936401A0936501B093EE
:1004D00066018091670190916801A0916901B091D6
:1004E0006A010196A11DB11D809367019093680177
:1004F000A0936901B0936A01BF91AF919F918F91D1
:100500003F912F910F900FBE0F901F90189526E8E6
:10051000230F0296A11DB11DD2CF1F920F920FB6CD
:100520000F9211242F933F934F935F936F937F9379
:100530008F939F93AF93BF93EF93FF938BE691E0DD
:100540000E94A701FF91EF91BF91AF919F918F9171
:100550007F916F915F914F913F912F910F900FBEBF
:100560000F901F9018951F920F920FB60F921124A3
:100570002F938F939F93EF93FF93E0917B01F091E3
:100580007C018081E0918101F091820182FD1BC09C
:100590009081809184018F5F8F73209185018217F4
:1005A00041F0E0918401F0E0E559FE4F958F809392
:1005B0008401FF91EF919F918F912F910F900FBE2A
:1005C0000F901F9018958081F4CFCF93DF93CDB714
:1005D000DEB7A1970FB6F894DEBF0FBECDBF7894FB
:1005E00084B5826084BD84B5816084BD85B5826038
:1005F00085BD85B5816085BD80916E0081608093E9
:100600006E00109281008091810082608093810051
:100610008091810081608093810080918000816061
:10062000809380008091B10084608093B1008091BC
:10063000B00081608093B00080917A0084608093E4
:100640007A0080917A00826080937A0080917A00AB
:10065000816080937A0080917A00806880937A002C
:100660001092C10082E00E94870083E00E94870010
:1006700084E00E94870060E082E00E94A60060E0C3
:1006800083E00E94A60060E084E00E94A600E09162
:100690007B01F0917C0182E08083E0917701F09111
:1006A00078011082E0917901F0917A018FEC8083DA
:1006B00010928301E0917F01F091800186E08083B8
:1006C000E0917D01F0917E01808180618083E091E5
:1006D0007D01F0917E01808188608083E0917D01C1
:1006E000F0917E01808180688083E0917D01F091AE
:1006F0007E0180818F7D808382E191E00E943602BD
:1007000084E491E00E94360265E0262E312C7AE0E6
:10071000472E512C612C712CF12CE12C10E000E0C3
:10072000602F617082E00E94A600602F627083E0FB
:100730000E94A600602F647084E00E94A60083E2FD
:1007400090E00197F1F755E0A52EB12CD12CC12CEA
:100750008EE00E94F200C80ED91E8BE891E001974E
:10076000F1F721E0A21AB10899F747018FEF881A33
:10077000980AF701EE0FFF1FE65BFE4FC601B101BD
:100780000E94AA0471836083043011050CF09DC09F
:1007900035E0C32ED12CB12CA12C8FE00E94F200A9
:1007A000A80EB91E8BE891E00197F1F791E0C91A04
:1007B000D10899F7E2E0EE0EF11CF401EE0FFF1FF5
:1007C000E65BFE4FC501B1010E94AA0471836083FC
:1007D0000F5F1F4F0830110509F0A2CF9AE4A92E30
:1007E00091E0B92E10E000E0F501C190D1905F01D9
:1007F0000D2C000CEE08FF08F7FE69C06DE28BE6D9
:1008000091E00E94C90122273327A9012C193D0933
:100810004E095F0919A2CE0181967C01CA01B90176
:10082000A30192010E94BE04605DF70162937F0103
:10083000211531054105510589F7E114F10419F03D
:10084000C7010E9436020B30110521F087E491E0C8
:100850000E9436020F5F1F4F0C30110529F684E409
:1008600091E00E9436020E9404014B015C018CE27F
:10087000C82EDD24D394E12CF12C0E9404016819C8
:1008800079098A099B09683E734081059105A8F39F
:10089000F1E0CF1AD108E108F10828EE820E23E03A
:1008A000921EA11CB11CC114D104E104F10429F76A
:1008B00080E090E0892B09F42FCF0E9493018823D8
:1008C00009F42ACF0E94000027CF740181CFA7012D
:1008D000960119A2CE0181967C01CA01B901A3013A
:1008E00092010E94BE04605DF70162937F012115B1
:1008F00031054105510589F7A0CFEBE6F1E0138200
:10090000128288EE93E0A0E0B0E084839583A68312
:10091000B78384E091E09183808385EC90E09587B4
:10092000848784EC90E09787868780EC90E0918BB9
:10093000808B81EC90E0938B828B82EC90E0958BA6
:10094000848B86EC90E0978B868B118E128E138EA3
:10095000148E089597FB072E16F4009407D077FDA8
:1009600009D00E94E00407FC05D03EF490958195E3
:100970009F4F0895709561957F4F0895A1E21A2EBB
:10098000AA1BBB1BFD010DC0AA1FBB1FEE1FFF1F33
:10099000A217B307E407F50720F0A21BB30BE40B83
:1009A000F50B661F771F881F991F1A9469F76095CA
:1009B0007095809590959B01AC01BD01CF01089584
:1009C000AA1BBB1B51E107C0AA1FBB1FA617B70775
:1009D00010F0A61BB70B881F991F5A95A9F7809591
:1009E0009095BC01CD010895EE0FFF1F0590F49185
:0809F000E02D0994F894FFCFFB
:1009F80000000000C901290156011602870165019E
:100A080079014475616C2043443430353120E280EB
:100A180093205368617265642041424320E28093C9
:100A28002050726F746575732053696D756C6174AD
:0A0A3800696F6E000D0A002C00002B
:00000001FF
